{
  "_format": "hh-sol-artifact-1",
  "contractName": "SBTMinimalProxyFactory",
  "sourceName": "contracts/SBTMinimalProxyFactory.sol",
  "abi": [
    {
      "inputs": [
        {
          "internalType": "address",
          "name": "_implementation",
          "type": "address"
        }
      ],
      "stateMutability": "nonpayable",
      "type": "constructor"
    },
    {
      "inputs": [],
      "name": "FailedDeployment",
      "type": "error"
    },
    {
      "inputs": [
        {
          "internalType": "uint256",
          "name": "balance",
          "type": "uint256"
        },
        {
          "internalType": "uint256",
          "name": "needed",
          "type": "uint256"
        }
      ],
      "name": "InsufficientBalance",
      "type": "error"
    },
    {
      "anonymous": false,
      "inputs": [
        {
          "indexed": true,
          "internalType": "address",
          "name": "clone",
          "type": "address"
        }
      ],
      "name": "CloneCreated",
      "type": "event"
    },
    {
      "inputs": [],
      "name": "createNewClone",
      "outputs": [
        {
          "internalType": "address",
          "name": "newInstance",
          "type": "address"
        }
      ],
      "stateMutability": "nonpayable",
      "type": "function"
    },
    {
      "inputs": [],
      "name": "deployer",
      "outputs": [
        {
          "internalType": "address",
          "name": "",
          "type": "address"
        }
      ],
      "stateMutability": "view",
      "type": "function"
    },
    {
      "inputs": [],
      "name": "implementation",
      "outputs": [
        {
          "internalType": "address",
          "name": "",
          "type": "address"
        }
      ],
      "stateMutability": "view",
      "type": "function"
    },
    {
      "inputs": [
        {
          "internalType": "address",
          "name": "",
          "type": "address"
        }
      ],
      "name": "userClone",
      "outputs": [
        {
          "internalType": "address",
          "name": "",
          "type": "address"
        }
      ],
      "stateMutability": "view",
      "type": "function"
    }
  ],
  "bytecode": "0x608060405234801561001057600080fd5b506040516109cb3803806109cb8339818101604052810190610032919061011c565b806000806101000a81548173ffffffffffffffffffffffffffffffffffffffff021916908373ffffffffffffffffffffffffffffffffffffffff16021790555033600160006101000a81548173ffffffffffffffffffffffffffffffffffffffff021916908373ffffffffffffffffffffffffffffffffffffffff16021790555050610149565b600080fd5b600073ffffffffffffffffffffffffffffffffffffffff82169050919050565b60006100e9826100be565b9050919050565b6100f9816100de565b811461010457600080fd5b50565b600081519050610116816100f0565b92915050565b600060208284031215610132576101316100b9565b5b600061014084828501610107565b91505092915050565b610873806101586000396000f3fe608060405234801561001057600080fd5b506004361061004c5760003560e01c80635c60da1b146100515780637672d3b71461006f578063aca437ad1461009f578063d5f39488146100bd575b600080fd5b6100596100db565b60405161006691906105c2565b60405180910390f35b6100896004803603810190610084919061060e565b6100ff565b60405161009691906105c2565b60405180910390f35b6100a7610132565b6040516100b491906105c2565b60405180910390f35b6100c561044f565b6040516100d291906105c2565b60405180910390f35b60008054906101000a900473ffffffffffffffffffffffffffffffffffffffff1681565b60026020528060005260406000206000915054906101000a900473ffffffffffffffffffffffffffffffffffffffff1681565b60008073ffffffffffffffffffffffffffffffffffffffff16600260003373ffffffffffffffffffffffffffffffffffffffff1673ffffffffffffffffffffffffffffffffffffffff16815260200190815260200160002060009054906101000a900473ffffffffffffffffffffffffffffffffffffffff1673ffffffffffffffffffffffffffffffffffffffff1614610201576040517f08c379a00000000000000000000000000000000000000000000000000000000081526004016101f8906106be565b60405180910390fd5b61022a60008054906101000a900473ffffffffffffffffffffffffffffffffffffffff16610475565b905060008173ffffffffffffffffffffffffffffffffffffffff16600160009054906101000a900473ffffffffffffffffffffffffffffffffffffffff163360405160240161027a9291906106de565b6040516020818303038152906040527f485cc955000000000000000000000000000000000000000000000000000000007bffffffffffffffffffffffffffffffffffffffffffffffffffffffff19166020820180517bffffffffffffffffffffffffffffffffffffffffffffffffffffffff83818316178352505050506040516103049190610778565b6000604051808303816000865af19150503d8060008114610341576040519150601f19603f3d011682016040523d82523d6000602084013e610346565b606091505b505090508061038a576040517f08c379a0000000000000000000000000000000000000000000000000000000008152600401610381906107db565b60405180910390fd5b81600260003373ffffffffffffffffffffffffffffffffffffffff1673ffffffffffffffffffffffffffffffffffffffff16815260200190815260200160002060006101000a81548173ffffffffffffffffffffffffffffffffffffffff021916908373ffffffffffffffffffffffffffffffffffffffff1602179055508173ffffffffffffffffffffffffffffffffffffffff167fbe2f3d28fdeb5839123d65fd47ec2f5915c715d2b527b9e229123706fdecfc8560405160405180910390a25090565b600160009054906101000a900473ffffffffffffffffffffffffffffffffffffffff1681565b6000610482826000610489565b9050919050565b6000814710156104d25747826040517fcf4791810000000000000000000000000000000000000000000000000000000081526004016104c9929190610814565b60405180910390fd5b763d602d80600a3d3981f3363d3d373d3d3d363d730000008360601b60e81c176000526e5af43d82803e903d91602b57fd5bf38360781b176020526037600983f09050600073ffffffffffffffffffffffffffffffffffffffff168173ffffffffffffffffffffffffffffffffffffffff160361057b576040517fb06ebf3d00000000000000000000000000000000000000000000000000000000815260040160405180910390fd5b92915050565b600073ffffffffffffffffffffffffffffffffffffffff82169050919050565b60006105ac82610581565b9050919050565b6105bc816105a1565b82525050565b60006020820190506105d760008301846105b3565b92915050565b600080fd5b6105eb816105a1565b81146105f657600080fd5b50565b600081359050610608816105e2565b92915050565b600060208284031215610624576106236105dd565b5b6000610632848285016105f9565b91505092915050565b600082825260208201905092915050565b7f596f7520616c7265616479206861766520696e7374616e74696174656420612060008201527f636c6f6e65000000000000000000000000000000000000000000000000000000602082015250565b60006106a860258361063b565b91506106b38261064c565b604082019050919050565b600060208201905081810360008301526106d78161069b565b9050919050565b60006040820190506106f360008301856105b3565b61070060208301846105b3565b9392505050565b600081519050919050565b600081905092915050565b60005b8381101561073b578082015181840152602081019050610720565b60008484015250505050565b600061075282610707565b61075c8185610712565b935061076c81856020860161071d565b80840191505092915050565b60006107848284610747565b915081905092915050565b7f50726f787920696e697469616c697a6174696f6e206661696c65640000000000600082015250565b60006107c5601b8361063b565b91506107d08261078f565b602082019050919050565b600060208201905081810360008301526107f4816107b8565b9050919050565b6000819050919050565b61080e816107fb565b82525050565b60006040820190506108296000830185610805565b6108366020830184610805565b939250505056fea264697066735822122095bdd75bbc220148ba3e294e1f380060360ab1c62ce36a61254894145a8f9a3364736f6c634300081c0033",
  "linkReferences": {},
  "deployedLinkReferences": {}
}